S0120000526F75746572436172642E7372656317
S11300006DC000008AC0000088C0000086C00000E7
S113001084C0000082C0000080C000007EC00000D8
S11300207CC000007AC0000078C0000076C00000E8
S113003074C0000072C0000070C000006EC00000F8
S11300406CC000000C946F1614C3000066C000005E
S113005064C00000DFC2000060C200005EC0000097
S11300605CC000005AC0000058C0000056C0000028
S113007054C0000052C0000050C000004EC0000038
S11300809AC2000006C200008CC2000046C00000F4
S113009044C00000AE106510671069106B106D103D
S11300A0B4106310B610B0106F107110B2107F103E
S11300B08310851087108910B8107D1081108B1063
S11300C08D108F10E410C710C910CB10CD10CF10B5
S11300D0E810C510EA10E610D110D31011241FBE89
S11300E0CFEFD0E1DEBFCDBF13E0A0E0B1E0E2E6A8
S11300F0F0E300E00BBF02C007900D92AE33B107EE
S1130100D9F72DE0AEE3B3E001C01D92A735B207E5
S1130110E1F70E94ED100C942F1872CFCF92DF926A
S1130120EF92FF920F931F93CF93DF93EC016B0138
S11301307A01649F8001659F100D749F100D112436
S1130140C8010E94D51699838883000F111F080FD8
S1130150191F1B830A83DD82CC821F821E82F986CB
S1130160E8869B878A879D878C87DF91CF911F9133
S11301700F91FF90EF90DF90CF900895CF93DF938E
S1130180EC012E813F818C819D8128173907F1F084
S1130190488559858A859B850E94F61788859985A7
S11301A0880F991F2A853B85820F931F9B878A8717
S11301B02A813B818217930721F4888199819B8747
S11301C08A878E819F8101969F838E83DF91CF9151
S11301D00895CF93DF93EC018E819F81892BF9F0F1
S11301E0CB016C857D85488559850E94F6178885E5
S11301F09985880F991F2C853D85820F931F9D87B4
S11302008C872A813B818217930721F48881998105
S11302109D878C878E819F8101979F838E83DF9139
S1130220CF910895FC01CB01648575854085518586
S11302300C94F6170895FC01868197810895611541
S113024026E972078105910501F130F461157B44BB
S11302508105910509F127C0611521EE7207810519
S1130260910561F06115724C81409105E1F480E1E2
S113027090E09093C5008093C4001BC082E290E09C
S11302809093C5008093C40014C083E390E09093DE
S1130290C5008093C4000DC087E690E09093C5002C
S11302A08093C40006C08FEC90E09093C5008093C7
S11302B0C40082E08093C0008EE08093C20088E98D
S11302C08093C10041E050E062E370E08AE793E08C
S11302D025DF41E050E062E370E086E993E01ECF61
S11302E00895611526E972078105910501F130F43D
S11302F061157B448105910509F127C0611521EE43
S113030072078105910561F06115724C8140910578
S1130310E1F480E190E09093CD008093CC001BC089
S113032082E290E09093CD008093CC0014C083E3EC
S113033090E09093CD008093CC000DC087E690E0D0
S11303409093CD008093CC0006C08FEC90E0909306
S1130350CD008093CC0082E08093C80086E0809337
S1130360CA0088E98093C90041E050E062E370E08C
S11303708BE693E0D3DE41E050E062E370E088E88E
S113038093E0CCCE08950F931F93CF93DF931F92E6
S1130390CDB7DEB7898301EC10E0F80180818F7D51
S11303A08083BE016F5F7F4F8AE793E0E7DEF80149
S11303B08081806280830F90DF91CF911F910F9194
S11303C008950F931F93CF93DF931F92CDB7DEB79A
S11303D0898309EC10E0F80180818F7D8083BE0160
S11303E06F5F7F4F8BE693E0C9DEF8018081806206
S11303F080830F90DF91CF911F910F910895CF9338
S1130400DF931F92CDB7DEB7BE016F5F7F4F88E8E1
S113041093E0DFDE89810F90DF91CF910895CF9330
S1130420DF931F92CDB7DEB7BE016F5F7F4F86E9C2
S113043093E0CFDE89810F90DF91CF910895CF9320
S1130440DF931F92CDB7DEB7BE016F5F7F4F86E9A2
S113045093E0E8DE89810F90DF91CF910895CF93E7
S1130460DF931F92CDB7DEB7BE016F5F7F4F88E881
S113047093E0D8DE89810F90DF91CF910895809128
S11304809C0390919D03089580918E0390918F0316
S113049008951F920F920FB60F9211240BB60F926C
S11304A02F933F934F935F936F937F938F939F9378
S11304B0AF93BF93EF93FF93CF93DF931F92CDB787
S11304C0DEB780917103909172031816190654F4E3
S11304D0BE016F5F7F4F8BE693E07BDE8981809363
S11304E0CE0005C0E9ECF0E080818F7D80830F9021
S11304F0DF91CF91FF91EF91BF91AF919F918F9138
S11305007F916F915F914F913F912F910F900BBE0F
S11305100F900FBE0F901F9018951F920F920FB659
S11305200F9211240BB60F922F933F934F935F9327
S11305306F937F938F939F93AF93BF93EF93FF93A7
S1130540CF93DF931F92CDB7DEB780918003909154
S113055081031816190654F4BE016F5F7F4F8AE7B2
S113056093E037DE89818093C60005C0E1ECF0E0BA
S113057080818F7D80830F90DF91CF91FF91EF91E8
S1130580BF91AF919F918F917F916F915F914F91A7
S11305903F912F910F900BBE0F900FBE0F901F90A5
S11305A018951F920F920FB60F9211240F900FBE41
S11305B00F901F9018951F920F920FB60F9211244F
S11305C00BB60F922F933F934F935F936F937F9349
S11305D08F939F93AF93BF93EF93FF938091CE003C
S11305E08093790369E773E088E893E0C7DDFF91BE
S11305F0EF91BF91AF919F918F917F916F915F9197
S11306004F913F912F910F900BBE0F900FBE0F9003
S11306101F9018951F920F920FB60F9211240BB6CC
S11306200F922F933F934F935F936F937F938F9387
S11306309F93AF93BF93EF93FF938091C6008093F2
S1130640A40364EA73E086E993E098DDFF91EF91F7
S1130650BF91AF919F918F917F916F915F914F91D6
S11306603F912F910F900BBE0F900FBE0F901F90D4
S113067018951F920F920FB60F9211240BB60F927A
S11306802F933F934F935F936F937F938F939F9396
S1130690AF93BF93CF93EF93FF93EDEEF0E0C08160
S11306A08091EC00682F70E0807F80837295629562
S11306B06F7067277F7067278091EE008F7DC1F58B
S11306C02091F2008091F300E9E4F3E0229526956D
S11306D0277090E0880F991F880F991F880F991F22
S11306E0822B918380838091EF008F70828390E0CE
S11306F0009759F0ECE4F3E0845B9C4FAAEFB0E080
S11307002C912193E817F907D9F71092EE0080E8AD
S11307108093EF00FB01EE0FFF1FEA55FC4F0190A1
S1130720F081E02D89E493E00995C093ED00D8C0F1
S11307308091EE008F7B09F057C0FB01EE0FFF1F85
S1130740EA55FC4F0190F081E02D89E493E009958E
S113075080914B03882309F440C0E9E4F3E08081ED
S1130760918196958795969587959695879580938B
S1130770F30080818295880F807E8093F20010922E
S1130780F1001092F0008281893019F081110DC0BE
S11307901CC0ECE4F3E024E533E0AAEFB0E081917F
S11307A08C93E217F307D9F710C080E029E433E013
S11307B0AAEFB0E0E82FF0E0E75BFC4F93819C9355
S11307C08F5FF90192818917A8F31092EE0080914E
S11307D04B03805C8093EF0004C01092EE001092F3
S11307E0EF00C093ED007CC08091EE0090E08F7725
S11307F0892BC1F52091F2008091F300E9E4F3E044
S113080022952695277090E0880F991F880F991FCD
S1130810880F991F822B918380838091EF008F70C2
S1130820828390E0009759F0ECE4F3E0845B9C4F02
S1130830AAEFB0E02C9121938E179F07D9F710925D
S1130840EE0080E88093EF00FB01EE0FFF1FEA55F6
S1130850FC4F0190F081E02D89E493E00995C09369
S1130860ED003EC08091EE008F75C1F52091F2003D
S11308708091F300E9E4F3E022952695277090E057
S1130880880F991F880F991F880F991F822B9183B6
S113089080838091EF008F70828390E0009759F0FD
S11308A0ECE4F3E0845B9C4FAAEFB0E02C9121933D
S11308B0E817F907D9F71092EE0080E88093EF006B
S11308C0FB01EE0FFF1FEA55FC4F0190F081E02D74
S11308D089E493E00995C093ED0002C08091EE0095
S11308E0FF91EF91CF91BF91AF919F918F917F91A4
S11308F06F915F914F913F912F910F900BBE0F908D
S11309000FBE0F901F901895CF93DF939091EF0037
S1130910907C21F09091EE0096FF73C0C82FE82FD1
S1130920F0E0EE0FFF1FEA55FC4F0190F081E02D3F
S1130930682F8EE393E00995C295C07FC093ED00C4
S113094080914003882309F45EC01092EE00109257
S1130950EF008F3FC1F1EEE3F3E080819181969542
S1130960879596958795969587958093F3008081D2
S11309708295880F807E8093F2001092F10010928D
S1130980F0008281893019F081110DC033C0E1E497
S1130990F3E029E433E0AAEFB0E081918C93E2170D
S11309A0F307D9F727C080E0CEE3D3E0AAEFB0E0A5
S11309B0E82FF0E0E25CFC4F93819C938F5F9A8177
S11309C08917B0F317C0EEE3F3E080819181969527
S11309D0879596958795969587958093F300808162
S11309E08295880F807E8093F2001092F10084E05B
S11309F08093F00080914003805C8093EF0081E05D
S1130A0003C080E001C080E0DF91CF910895CF93CF
S1130A10DF93FB01208131812115384008F098953E
S1130A209281993008F098958F3008F098958295C6
S1130A30807F8093ED008091EF00807C21F0809195
S1130A40EE0086FF49C01092EE001092EF00828102
S1130A508F3F39F1808191819695879596958795F9
S1130A60969587958093F30080818295880F807E88
S1130A708093F2001092F1001092F000828188239A
S1130A8029F1DF01139620E030E0CAEFD0E08D9128
S1130A9088832F5F3F4F828190E028173907B8F38E
S1130AA015C08081918196958795969587959695A1
S1130AB087958093F30080818295880F807E809350
S1130AC0F2001092F10084E08093F0008281805C57
S1130AD08093EF0081E001C080E0DF91CF91089521
S1130AE08F3008F06DC0E82FF0E0EE0FFF1FEA55DD
S1130AF0FC4F31832083982F9295907F9093ED0043
S1130B00232BD9F41092EE001092EF0021E030E094
S1130B10A90102C0440F551F8A95E2F7CA01EEED00
S1130B20F0E02081809582238083EFEDF0E08081E6
S1130B3090958923808380E008959091EF00907CC4
S1130B4009F040C01092EE00EFEEF0E01082109237
S1130B50EC009B0136952795369527953695279574
S1130B602093F3006295660F607E6093F2009A0111
S1130B703695279536952795369527952093F70032
S1130B804295440F407E4093F6001092F500109277
S1130B90F40090E8908321E030E0A90102C0440F02
S1130BA0551F8A95E2F7CA01EEEDF0E02081822B11
S1130BB08083EFEDF0E08081892B808380E00895CD
S1130BC081E0089581E008958F3008F049C0E82F4E
S1130BD0F0E0EE0FFF1FEA55FC4F31832083982F7E
S1130BE09295907F9093ED00232BD9F41092EE0010
S1130BF01092EF0021E030E0A90102C0440F551F1C
S1130C008A95E2F7CA01EEEDF0E020818095822317
S1130C108083EFEDF0E0808190958923808380E0EC
S1130C2008959091EF00907CE9F41092EE001092F8
S1130C30EF001092EC0021E030E0A90102C0440F63
S1130C40551F8A95E2F7CA01EEEDF0E02081822B70
S1130C508083EFEDF0E08081892B808381E008952B
S1130C6081E0089580E00895CF93DF9382E080933C
S1130C70E2008CE08093E30087E38093E40080E06B
S1130C80CDEED0E0AEEEB0E0EFEEF0E0982F92952E
S1130C90907F98831C9210828F5F8F30B9F7E8EDB4
S1130CA0F0E080818260808380EB8093DB00DF91C1
S1130CB0CF910895FC01EC5AFF4F208131812532F8
S1130CC031058CF534970190F081E02DDF01AA0FF6
S1130CD0BB1FA80FB91F6D937C93BF016F5F7F4F3C
S1130CE068327105D0F4660F771FDC01A60FB71FB9
S1130CF04D935C933296E832F10510F0E0E0F0E0B9
S1130D00DC01A05BBF4FED93FC93FC01EC5AFF4F59
S1130D102E5F3F4F318320830895FC01518340832C
S1130D20E1E0F0E0EDCF0895CF93DF93FC018091F3
S1130D305A0390915B03019709F074C0EF0182811B
S1130D408850823008F046C0638170E0762F6627B1
S1130D508481680F711D8091990690919A06681795
S1130D60790780F4458150E0542F44278681480F49
S1130D70511D83E496E09EDF81E090E09093570359
S1130D80809356036F8170E0762F66278885680FFD
S1130D90711D8091990690919A066817790780F4DD
S1130DA0498550E0542F44278A85480F511D83E418
S1130DB096E080DF81E090E09093570380935603A0
S1130DC0488159814F71552760E070E083E496E0D3
S1130DD071DFACC0638170E0762F66278481680F71
S1130DE0711D8091990690919A066817790780F48D
S1130DF0458150E0542F44278681480F511D83E4D8
S1130E0096E058DF81E090E0909357038093560377
S1130E10488159814F71552760E070E083E496E082
S1130E2049DF84C0A091EB05B091EC0580819181EC
S1130E308F71992711969C938E938281885082306A
S1130E4008F04EC0838190E0982F88272481820F78
S1130E50911D2091990630919A0682179307C0F448
S1130E60880F991FA091EB05B091EC05A80FB91F4D
S1130E70858190E0982F88272681820F911D1196F5
S1130E809C938E9381E090E0909357038093560354
S1130E90878190E0982F88272085820F911D2091CB
S1130EA0990630919A068217930708F03FC0880F7D
S1130EB0991FA091EB05B091EC05A80FB91F81858E
S1130EC090E0982F88272285820F911D11969C937C
S1130ED08E9381E090E0909357038093560326C04D
S1130EE0838190E0982F88272481820F911D20917F
S1130EF0990630919A0682179307C0F4880F991FB8
S1130F00A091EB05B091EC05A80FB91F858190E085
S1130F10982F88272681820F911D11969C938E937A
S1130F2081E090E09093570380935603DF91CF9133
S1130F300895AB01BC0185E995E0BCCE08950F93FB
S1130F401F93CF93DF93FC01E854FF4F0190F0818E
S1130F50E02DE735F1050CF055C0DC01AC54BF4F72
S1130F600D90BC91A02DED01CC0FDD1FC80FD91F32
S1130F7079836883BD016F5F7F4F6A35710588F59A
S1130F80EC01CC54DF4F7983688324968F010F5F83
S1130F901F4F19830883660F771FEC01C60FD71FF5
S1130FA059834883AD014E5F5F4F4A35510520F5A3
S1130FB0440F551FEC01C40FD51F398328831396A2
S1130FC0AA35B10510F0A0E0B0E0EC01CC54DF4F3D
S1130FD0B983A883DC01A854BF4F3396ED93FC93E7
S1130FE011C0DC0111965C934E9313963C932E939F
S1130FF01297A2E0B0E0E9CFDC012D933C93A1E08D
S1131000B0E0E3CFDF91CF911F910F910895FC01E0
S1131010EC5AFF4F4081518114161506E4F43297BF
S113102020813181F901EE0FFF1FE80FF91F608164
S113103071812F5F3F4F2832310510F020E030E0FE
S1131040FC01EE5AFF4F31832083329641505109FF
S11310505183408302C060E070E0CB010895AF92F9
S1131060BF92CF92DF92EF92FF920F931F93CF9391
S1131070DF936C01A0907C04B0907D04E090E905BE
S1131080F090EA05F594E7941E141F049CF4C0E064
S1131090D0E085E995E0BBDF8C0185E995E0B7DF19
S11310A09C01A801B60184EC93E049DF2196EC167B
S11310B0FD0679F782E0A816B10410F48DE024DC73
S11310C0DF91CF911F910F91FF90EF90DF90CF9020
S11310D0BF90AF900895FC01E854FF4F40815181C7
S11310E014161506E4F4329720813181F901EE0FCC
S11310F0FF1FE80FF91F608171812F5F3F4F2A3571
S1131100310510F020E030E0FC01EA54FF4F318358
S113111020833296415051095183408302C060E0DC
S113112070E0CB010895FC01E854FF4F2081318128
S1131130121613065CF432970190F081E02DEE0F45
S1131140FF1FE80FF91F80819181089580E090E0EE
S11311500895FC01E854FF4F1182108234971182E4
S11311601082329611821082672B29F024EBFC0145
S113117011922A95E9F708959093EC058093EB0575
S11311804093940570939A066093990680E4489F6F
S1131190B001112424E936E040EE57E084E0A0DCFD
S11311A0882309F0989528EF38E04FEF57E06FEF68
S11311B077E08DE009DD88E593E00E94FC1410924D
S11311C0EA051092E9051092E6051092E5051092E1
S11311D0E8051092E70560E070E084EC93E0B9CF95
S11311E0089544E064E170E080E895E0C5CF089597
S11311F00F931F93CF93DF9320917C0430917D0450
S11312002115310509F4A5C0EC012730310508F496
S11312103CC084EC93E05FDF8C01002496958795B5
S11312200794969587950794982F802D0496998313
S1131230888384EC93E04FDF9B838C8384EC93E07E
S11312404ADF9D838E8384EC93E06DDF08171907D2
S1131250C9F484EC93E03FDF84EC93E03CDF9F83AC
S1131260888784EC93E037DF99878A8784EC93E05E
S11312705ADF0817190719F488E08A8370C089E0D7
S11312808A836DC084E08A836AC02630310599F56B
S113129084EC93E020DF8C010024969587950794D5
S11312A0969587950794982F802D04969983888323
S11312B084EC93E010DF9B838C8384EC93E00BDF5E
S11312C09D838E8384EC93E02EDF0817190781F445
S11312D084EC93E000DF84EC93E0FDDE9F83888759
S11312E084EC93E0F8DE99878A8789E08A8337C0A3
S11312F084E08A8334C023303105E1F484EC93E044
S1131300EADE002496958795079496958795079429
S1131310982F802D04969983888384E08A8384ECB3
S113132093E0D9DE9B838C8384EC93E0D4DE9D83AD
S11313308E8315C080915403909155030196909328
S113134055038093540361E070E084EC93E001DF83
S113135006C021E030E0FC01318320831282DF915A
S1131360CF911F910F91089582D1FC0184819581C1
S11313709093340A8093330A828193819093320C40
S11313808093310C868197819093DE0B8093DD0BE3
S1131390808591859093E00B8093DF0B8285938504
S11313A090936103809360032485358530935F03B4
S11313B020935E03892BA1F183E0DDD664E070E025
S11313C080E084D2609160037091610381E07ED2F9
S11313D060915E0370915F0382E078D285E097D2DA
S11313E060EA76E881E090E00E944613109261037F
S11313F01092600310925F0310925E0364E070E049
S113140080E064D2609160037091610381E05ED2F8
S113141060915E0370915F0382E058D285E077C2E9
S11314200895CF9380915C038823E1F08FE996E0DF
S11314300E940D168823B1F081E09DD664E070E02F
S113144080E044D2609160037091610381E03ED2F8
S113145060915E0370915F0382E038D285E057D2D9
S113146010925C038FEA96E00E940D16811108C069
S113147071C081E080D682B1805882B9C1E001C0D8
S1131480C0E05ED38111F5CFCC2309F45FC06CDFDB
S11314908CE071D68091600390916103892B09F0EF
S11314A045C010925D038091310C9091320C9923C8
S11314B01CF49195819591090D9724F061E08BE0DE
S11314C0F5D507C060E08BE0F1D51092320C109294
S11314D0310C8091330A9091340A99231CF491952C
S11314E0819591090D9724F061E08AE0DFD507C06A
S11314F060E08AE0DBD51092340A1092330A8091BE
S1131500DD0B9091DE0B99231CF491958195910943
S11315100D9724F061E08CE0C9D50DC060E08CE04B
S1131520C5D51092340A1092330A05C081E0809325
S11315305D0382E020D681E080935C0385E39AE03A
S11315400E94F3158FE996E00E94F3158FEA96E066
S11315500E94F31585E39AE00E940D16882391F00A
S113156064E070E080E0B2D1609160037091610347
S113157081E0ACD185E0CBD188E0FDD585E39AE06C
S11315800E94F315CF9108950F931F9302E310E087
S113159020E030E040E050E060E070E084EF9BE069
S11315A00E94E51502E020E030E040E050E060E019
S11315B070E08FEA96E00E94E51505E020E030E057
S11315C040E050E060E070E086EC98E00E94E515B1
S11315D002E320E030E040E050E060E070E08BEDBA
S11315E099E00E94E51502E020E030E040E050E0A0
S11315F060E070E08FE996E00E94E51508EE13E0E4
S113160020E030E040E050E060E070E085E39AE004
S11316100E94E51502E310E020E030E040E050E0F5
S113162060E070E081E29AE00E94E51520E030E09D
S113163040E050E060E070E081E19AE00E94E5154E
S113164020E030E040E050E060E070E083EE9BE0BA
S11316500E94E5151F910F91089590936103809363
S11316606003089590935F0380935E03089585E378
S11316709CE00895E8EDF8E082ED99E01192E81716
S1131680F907E1F70895AF92BF92CF92DF92EF92FC
S1131690FF920F931F939093EE098093ED0940936B
S11316A00E0A1093D60B0093D50BD092E20BC09286
S11316B0E10BB092180CA092170CF092F609E0928C
S11316C0F509669566956093D80988EF97E090933D
S11316D0C0068093BF062093C1061092AC0A1092F4
S11316E0AB0A1F910F91FF90EF90DF90CF90BF90C6
S11316F0AF900895AF92BF92CF92DF92EF92FF9294
S11317000F931F9390932E0C80932D0C4093F30B07
S113171010930A0A0093090AD092D309C092D209FD
S1131720B092D708A092D608F092D509E092D409D5
S1131730669566956093DC0B82EC96E09093320A92
S11317408093310A2093270C1092D7091092D6095E
S11317501F910F91FF90EF90DF90CF90BF90AF90CB
S11317600895AF92BF92CF92DF92EF92FF920F93C0
S11317701F930F2EFFE1AF2EF2E0BF2EF02D0F2EA0
S1131780FFE3CF2EF2E0DF2EF02D0F2EFFE0EF2E41
S1131790F2E0FF2EF02D03EC11E020E046E064E6D9
S11317A089E99CE070DF0F2EFFE2AF2EF2E0BF2E3E
S11317B0F02D0F2EF4E4CF2EF2E0DF2EF02D0F2EBD
S11317C0FFEFEF2EF1E0FF2EF02D01EE11E020E00F
S11317D046E064E685E39CE08DDF1F910F91FF9066
S11317E0EF90DF90CF90BF90AF900895FC019C01E3
S11317F0260F311DB90180E04CE80AC0219198E020
S1131800382F3227869530FD842726959150C1F7CD
S1131810E617F70799F708955093EC094093EB09FD
S1131820FC01E453FF4F20813181253C31050CF04C
S11318304CC0349740815181FC01E40FF51F608353
S1131840BA016F5F7F4F683C710568F5FC01E8538E
S1131850FF4F718360833496D9011196B183A083BD
S1131860E091EB09DC01A60FB71FEC936F5F7F4F8C
S1131870683C710518F5E091EC09DC01A60FB71F6F
S1131880EC934D5F5F4F483C510510F040E050E051
S1131890FC01E853FF4F5183408334962D5F3F4F43
S11318A0318320830895EBEEF9E04081DC014C9311
S11318B0418111964C9342E050E0EACF4091EC090B
S11318C0FC01408341E050E0E3CF0895AB01682F71
S11318D082EC96E0A1CF0895DC011F96ED91FC9176
S11318E05097AE0FBF1F6C9311964C93119712969D
S11318F02C933396EF30F10534F4DC015096FC93CD
S1131900EE931F970895FC01108A17860895EF92AD
S1131910FF920F931F93CF93DF93F82ECEE8D7E077
S113192068818091310A9091320A60DFE82EE0915B
S1131930090AF0910A0A86E00995E091090AF091F2
S11319400A0A85E80995E091090AF0910A0A8F2D9F
S11319500995E091090AF0910A0A8091F30B09951F
S1131960E091090AF0910A0A888109958881998190
S113197018161906BCF4C0E0D0E00EE817E0A091F8
S1131980310AB091320AAC0FBD1FE091090AF091FF
S11319900A0A8C9109952196F80180819181C817D2
S11319A0D9076CF3E091090AF0910A0A8E2D099582
S11319B020E04E2D6F2D88EF99E08EDF10928F0777
S11319C010928E0710928B0710928A0710928D073F
S11319D010928C07DF91CF911F910F91FF90EF90A0
S11319E00895653008F064E06F5F70E09B01220F9A
S11319F0331F620F731FFC012785308926173707B1
S1131A0034F4261B370BE20FF31F418B0895261B7A
S1131A10370BFC01E20FF31F42830895FC0165308C
S1131A2008F064E0433008F042E06F5F70E0CB01FF
S1131A30880F991F680F791F278530892617370764
S1131A4064F4C901861B970BBC01615F7F4FE60FED
S1131A50F71FE40FF11D80810895261B370BE20F59
S1131A60F31FE40FF11D80810895EF92FF920F930D
S1131A701F93CF93DF9300D01F92CDB7DEB7E091D1
S1131A80D209F091D30909950497CCF3E091D409D4
S1131A90F091D50909958983E091D409F091D5098C
S1131AA00995F82E8A83E091D409F091D509099516
S1131AB0082F8B83E091D409F091D5090995182F4B
S1131AC063E0CE01019692DE181327C0E090D70B95
S1131AD010E040E0612F88EF99E0A0DF8E1119C07B
S1131AE041E0612F88EF99E099DF081312C081E08B
S1131AF0F81206C041E0612F88EF99E072DF16C04A
S1131B0082E0F81206C042E0612F88EF99E069DFB5
S1131B100DC01F5F1530E9F609C080912B0C909120
S1131B202C0C019690932C0C80932B0C0F900F90FF
S1131B300F90DF91CF911F910F91FF90EF90089537
S1131B400F931F93CF93DF9300D01F92CDB7DEB7CF
S1131B508091D40B81116CC0E091D209F091D3092A
S1131B6009950597BCF45FC0E091D409F091D509BB
S1131B7009958091D6099091D70901969093D70938
S1131B808093D609E091D209F091D309099505977C
S1131B900CF490C1E091D608F091D70809958630ED
S1131BA019F7E091D608F091D7080995863009F025
S1131BB083C1E091D409F091D5090995E091D40944
S1131BC0F091D5090995853871F58091D4099091E2
S1131BD0D509FC01099580930D0A8091D40990914F
S1131BE0D509FC0109958093D70B8091D409909174
S1131BF0D509FC0109958093D40B80910D0A90912D
S1131C00F30B891781F08550833068F08091D909EE
S1131C109091DA0901969093DA098093D909109288
S1131C20D40B80E04EC18091D40B882309F446C1C3
S1131C308091F709811125C0E091D209F091D3096F
S1131C40099518161906C4F7E091D608F091D7083B
S1131C5009958F3FB1F409DF1092D40B1092F70964
S1131C6009DD6EDF2EC181E0810F8093F709E091D9
S1131C70D409F091D5090995E12FF0E0E852F74F26
S1131C808083E091D209F091D3090995892B31F031
S1131C901091F7098091D40B811728F76091D40B28
S1131CA0062F10E08091F70990E0019708171907B3
S1131CB009F006C188ED98E099DD8093EF09F801F9
S1131CC0E852F74F2081821399C090910D0A8091B8
S1131CD0F30B98133AC010161106BCF5A8EDB8E042
S1131CE020E030E04BEE59E09C918091DC0B98179A
S1131CF0D0F411968C911197FA01808312968C91ED
S1131D0012978183E92FF0E0EE0FFF1F80912D0CD5
S1131D1090912E0CE80FF91F8091EB099091EC093A
S1131D209183808309C08091A90A9091AA0A01969F
S1131D309093AA0A8093A90A2D5F3F4F139680912E
S1131D40D40B90E0281739077CF28091270C882364
S1131D5009F44DC08FEF898381E08A83E091F7090C
S1131D60F0E0E952F74F80818B8363E0CE01019666
S1131D703DDD182FE091090AF0910A0A86E00995E1
S1131D80E091090AF0910A0A85E80995E091090AA7
S1131D90F0910A0A8091D70B0995E091090AF09114
S1131DA00A0A8091F30B0995E091090AF0910A0A55
S1131DB083E00995E091090AF0910A0A8FEF0995E9
S1131DC0E091090AF0910A0A81E00995A091F709C6
S1131DD0B0E0A952B74FE091090AF0910A0A8C9138
S1131DE00995E091090AF0910A0A812F0995109248
S1131DF0D40B1092F7093EDC81E063C080912B0C78
S1131E0090912C0C019690932C0C80932B0C809128
S1131E10270C882309F447C08FEF898382E08A83E3
S1131E202B8363E0CE010196E1DC182FE091090ACF
S1131E30F0910A0A86E00995E091090AF0910A0AEC
S1131E4085E80995E091090AF0910A0A8091D70B77
S1131E500995E091090AF0910A0A8091F30B09951A
S1131E60E091090AF0910A0A83E00995E091090AD0
S1131E70F0910A0A8FEF0995E091090AF0910A0A94
S1131E8082E00995A091F709B0E0A952B74FE0911B
S1131E90090AF0910A0A8C910995E091090AF091D6
S1131EA00A0A812F09951092D40B1092F709E2DBEC
S1131EB080E007C080E005C080E003C080E001C08E
S1131EC080E00F900F900F90DF91CF911F910F91B1
S1131ED008950F931F93CF93789486E091E09093A5
S1131EE0540D8093530D60E072EC81E090E00E9409
S1131EF0710160E072EC81E090E00E941F0183E1D7
S1131F000E94C3018FE293E00E94FF178FE782B91A
S1131F1088EF81BB9FEF91B980BBC1E061E08C2F5A
S1131F20C5D02FEF80E792E0215080409040E1F748
S1131F3000C00000CF5FCD3089F72FEF8BE792E927
S1131F40215080409040E1F700C00000C1E060E013
S1131F508C2FACD02FEF80E792E02150804090404E
S1131F60E1F700C00000CF5FCD3089F70E9434064E
S1131F70F8DB37D9C1E061E08C2F98D0CF5FCD304A
S1131F80D1F7A7D608EE13E020E030E040E050E0BF
S1131F9060E070E08DEF9CE018D602E310E020E0F2
S1131FA030E040E050E060E070E08DE19DE00DD66F
S1131FB0EBDA89E393E00E94FF17C1E060E08C2F25
S1131FC075D0CF5FCD30D1F7CF911F910F91089588
S1131FD0319907C08FE39CE90197F1F700C0000035
S1131FE00895329907C08FE39CE90197F1F700C087
S1131FF000000895929907C08FE39CE90197F1F7D7
S113200000C000000895309950C08091620381118E
S113201022C061E084E04AD064E070E080E090E0B7
S11320200E94990764E070E081E090E00E949907C3
S11320306DE270E082E090E00E94990786E090E013
S11320400ED881E0809362038DE290E00BDB84E0A4
S113205090E003DB21C060E084E028D064E070E01D
S113206080E090E00E94990760E070E081E090E0F9
S11320700E94990760E070E082E090E00E94990776
S113208086E090E00E942F081092620380E090E0C6
S1132090E9DA80E090E0E1DA9FEF24E38CE091500C
S11320A020408040E1F700C000000895962F6111A0
S11320B01AC0482F50E0FA013197EC30F10588F549
S11320C0E65BFF4F4BC688E040C080E434C081E04B
S11320D03CC084E03AC080E138C080E436C080E28D
S11320E02AC088E028C0482F50E0FA013197EC302C
S11320F0F105B8F4EA5AFF4F31C687EF26C08FEBDB
S11321001AC08DEF22C08EEF20C08BEF1EC08FEE61
S11321101CC08FEB1AC08FE70EC08FED0CC087EF89
S11321200AC08A3028F4833078F4813018F102C070
S11321308D3000F580E02FB1911103C0822B81BB5B
S11321400895822381BB089580E020B1911103C0DA
S1132150822B82B90895822382B9089580E1EBCF5E
S113216080E8E9CF8FEEE7CF80E2EFCF82E0EDCFDA
S11321708FEDEBCF0895482F50E0FA013197EC3002
S1132180F10598F4EE59FF4FE9C588E01BC080E4DF
S113219016C081E017C084E015C080E113C080E45C
S11321A011C080E20CC088E00AC08A3028F4833071
S11321B040F4813088F002C08D3070F480E08FB933
S11321C0089580E080B9089580E1F9CF80E8F7CFE1
S11321D080E2F8CF82E0F6CF08957BDE04E610E0DB
S11321E020E030E040E050E060E070E08DE09DE011
S11321F0ECD48DEF9CE011D5882311F086E0BBDF91
S113220010D9E6DEF6CFCF92DF92EF92FF920F93D2
S11322101F93CF93DF93CDB7DEB760970FB6F894D3
S1132220DEBF0FBECDBF88E0EEEAF1E0DE01199615
S113223001900D928A95E1F7CE0101966C010F2E63
S1132240F7E0EF2EF12CF02D09E11CE029853A8509
S11322504B855C856D857E858F859889F1D2882331
S113226021F08D818295817001C080E060960FB667
S1132270F894DEBF0FBECDBFDF91CF911F910F91B8
S1132280FF90EF90DF90CF900895AF92BF92CF92DE
S1132290DF92EF92FF920F931F93CF93DF93CDB70B
S11322A0DEB7E0970FB6F894DEBF0FBECDBFD62ED3
S11322B0A72EB82EC92E88E0EEEDF1E0DE011196CE
S11322C001900D928A95E1F788E0E6EEF1E0DE01F7
S11322D0199601900D928A95E1F788E0EEEEF1E00F
S11322E0DE01519601900D928A95E1F788E0E6EFC0
S11322F0F1E0DE01599601900D928A95E1F788E0AC
S1132300EEEFF1E0DE01919601900D928A95E1F7EE
S11323100F2EF7E0EF2EF12CF02D09E11CE02981BE
S11323203A814B815C816D817E818F819885FAD160
S113233029893A894B895C896D897E898F89988D31
S1132340F1D129A13AA14BA15CA16DA17EA18FA1DC
S113235098A5E8D129853A854B855C856D857E8570
S11323608F859889DFD1298D3A8D4B8D5C8D6D8D4C
S11323707E8D8F8D98A1D6D180E9382F6D2D2DE7D4
S113238047E350E07A2D8B2D9C2DCCD1E0960FB6EF
S1132390F894DEBF0FBECDBFDF91CF911F910F9197
S11323A0FF90EF90DF90CF90BF90AF9008958F9201
S11323B09F92AF92BF92EF92FF920F931F93CF938E
S11323C0DF93CDB7DEB7E0970FB6F894DEBF0FBE4C
S11323D0CDBF4B015C0188E0E6E0F2E0DE0111963E
S11323E001900D928A95E1F788E0EEE0F2E0DE01DB
S11323F0199601900D928A95E1F788E0E6E1F2E002
S1132400DE01519601900D928A95E1F788E0EEE1A4
S1132410F2E0DE01599601900D928A95E1F788E089
S1132420E6E2F2E0DE01919601900D928A95E1F7E1
S11324300F2EF6E0EF2EF12CF02D0BEB1AE0298194
S11324403A814B815C816D817E818F8198856AD1CF
S113245029893A894B895C896D897E898F89988D10
S113246061D129A13AA14BA15CA16DA17EA18FA14B
S113247098A558D129853A854B855C856D857E85DF
S11324808F8598894FD1298D3A8D4B8D5C8D6D8DBB
S11324907E8D8F8D98A146D180E9382F8827992782
S11324A0DC0188199909AA09BB09682F8DA79EA781
S11324B0AFA7B8AB2EE747E350E07EA58FA598A958
S11324C031D1E0960FB6F894DEBF0FBECDBFDF91D9
S11324D0CF911F910F91FF90EF90BF90AF909F907D
S11324E08F900895EF92FF920F931F93CF93DF93F2
S11324F0CDB7DEB7A0970FB6F894DEBF0FBECDBF41
S113250088E0EEE2F2E0DE01119601900D928A95E8
S1132510E1F788E0E6E3F2E0DE01199601900D921E
S11325208A95E1F788E0EEE3F2E0DE01519601904E
S11325300D928A95E1F788E0E6E4F2E0DE0159962F
S113254001900D928A95E1F70F2EF7E0EF2EF12C12
S1132550F02D09E11CE029813A814B815C816D8178
S11325607E818F819885DED029853A854B855C856F
S11325706D857E858F859889D5D029893A894B893F
S11325805C896D897E898F89988DCCD0298D3A8D0F
S11325904B8D5C8D6D8D7E8D8F8D98A1C3D0A09653
S11325A00FB6F894DEBF0FBECDBFDF91CF911F9160
S11325B00F91FF90EF900895EF92FF920F931F9366
S11325C0CF93DF93CDB7DEB7A0970FB6F894DEBFF5
S11325D00FBECDBF88E0EEE4F2E0DE01119601907B
S11325E00D928A95E1F788E0E6E5F2E0DE011996BE
S11325F001900D928A95E1F788E0EEE5F2E0DE01C4
S1132600519601900D928A95E1F788E0E6E6F2E0B2
S1132610DE01599601900D928A95E1F70F2EF6E0AE
S1132620EF2EF12CF02D0BEB1AE029813A814B812E
S11326305C816D817E818F81988574D029853A85EE
S11326404B855C856D857E858F8598896BD02989BE
S11326503A894B895C896D897E898F89988D62D08E
S1132660298D3A8D4B8D5C8D6D8D7E8D8F8D98A1CE
S113267059D0A0960FB6F894DEBF0FBECDBFDF9140
S1132680CF911F910F91FF90EF900895CF92DF9219
S1132690EF92FF920F931F936B017C0160E086E041
S11326A005DD08E813E120E030E040E050E060E0C0
S11326B070E08DE39DE089D20AE010E020E030E094
S11326C040E050E060E070E08DE29DE07ED28DE27B
S11326D09DE0A3D28823D9F3C701B601D6DD6627CE
S11326E07727CB016C197D098E099F0960DE61E0B3
S11326F086E0DCDC05C08DE29DE08FD28823D9F32F
S113270039D18823C1F37FDD8823A9F3EBDE54DFBD
S113271060E086E0CBDC1F910F91FF90EF90DF909B
S1132720CF900895AF92BF92CF92DF92EF920F9322
S11327301F93CF93DF93CDB7DEB760970FB6F894AE
S1132740DEBF0FBECDBF29873A874B875C876D8775
S11327507E878F87988B80911401909115010E2CA0
S113276002C0959587950A94E2F780FF41C058010D
S113277006C0BE016F5F7F4FC5010E94E900C5011D
S11327800E941B0118161906A4F329853A854B8566
S11327905C856D857E858F85988965D18823A9F3AD
S11327A00F2EF4E6CF2ED12CF02DC5010E941B0173
S11327B0892B99F0BE016F5F7F4FC5010E94E9002C
S11327C009851A852B853C854D855E856F857889BD
S11327D0CE01019681D181110DC08FE99FE001974F
S11327E0F1F700C0000091E0C91AD108F1F604C065
S11327F080E016C081E014C081E090E002C0880F40
S1132800991FEA94E2F780959095209114013091F4
S1132810150182239323909315018093140180E082
S113282060960FB6F894DEBF0FBECDBFDF91CF9197
S11328301F910F91EF90DF90CF90BF90AF900895CC
S11328408F929F92AF92BF92CF92DF92EF920F93AB
S11328501F93CF93DF93CDB7DEB760970FB6F8948D
S1132860DEBF0FBECDBF29873A874B875C876D8754
S11328707E878F87988B80911401909115010E2C7F
S113288002C0959587950A94E2F780FF4BC04801F2
S113289006C0BE016F5F7F4FC4010E94E900C401FE
S11328A00E941B0118161906A4F329853A854B8545
S11328B05C856D857E858F859889A2D08823A9F350
S11328C00F2EF4E6AF2EB12CF02DC4010E941B0193
S11328D0892BE9F0BE016F5F7F4FC4010E94E900BC
S11328E009851A852B853C854D855E856F8578899C
S11328F0CE0101962BD1882351F088E0FE01319658
S1132900D60101900D928A95E1F781E021C08FE90B
S11329109FE00197F1F700C0000091E0A91AB10807
S1132920A1F602C080E014C081E090E002C0880FEC
S1132930991FEA94E2F780959095209114013091C3
S1132940150182239323909315018093140180E051
S113295060960FB6F894DEBF0FBECDBFDF91CF9166
S11329601F910F91EF90DF90CF90BF90AF909F9009
S11329708F900895CF92DF92EF92FF920F931F935F
S1132980CF93DF93CDB7DEB760970FB6F894DEBF71
S11329900FBECDBF88E0E6E0F3E0DE0119960190BA
S11329A00D928A95E1F7CE0101966C010F2EF6E0A7
S11329B0EF2EF12CF02D0BEB1AE029853A854B858F
S11329C05C856D857E858F8598893ADF882321F023
S11329D08D818295817001C080E060960FB6F89475
S11329E0DEBF0FBECDBFDF91CF911F910F91FF903E
S11329F0EF90DF90CF900895FC011182108208952A
S1132A00CF93DF93CDB7DEB763970FB6F894DEBFED
S1132A100FBECDBF932F5F8730E03A5F3A8329839F
S1132A2088E08B83E6E2F3E0DE01149601900D92D8
S1132A308A95E1F780E48C839D834E838F858F8311
S1132A40188619861A861B86BE016F5F7F4F8EE03B
S1132A500E94070563960FB6F894DEBF0FBECDBF84
S1132A60DF91CF9108951F93CF93DF93CDB7DEB756
S1132A7063970FB6F894DEBF0FBECDBF132F5F87E9
S1132A80798B762F6989582F30E03A5F3A8329830E
S1132A9088E08B83E6E2F3E0DE01149601900D9268
S1132AA08A95E1F783E28C831D834E838F858F8320
S1132AB0788769875A879B87BE016F5F7F4F8EE057
S1132AC00E94070563960FB6F894DEBF0FBECDBF14
S1132AD0DF91CF911F9108950F931F93CF93DF93AD
S1132AE0CDB7DEB728970FB6F894DEBF0FBECDBFC3
S1132AF0FC011A832B833C8380818036B9F42A81BC
S1132B003B81818190E0A90155278417950781F4C1
S1132B10828190E0232F33278217930759F481E0B1
S1132B2023819C81291739F080E005C080E003C02F
S1132B3080E001C080E028960FB6F894DEBF0FBE97
S1132B40CDBFDF91CF911F910F9108950F931F93E4
S1132B50CF93DF93CDB7DEB728970FB6F894DEBFD7
S1132B600FBECDBFFC011A832B833C8390818EEB77
S1132B70890F823018F09B7F9B34B9F42A813B8102
S1132B80818190E0A90155278417950781F48281FA
S1132B9090E0232F33278217930759F481E0238190
S1132BA09C81291739F080E005C080E003C080E0F3
S1132BB001C080E028960FB6F894DEBF0FBECDBFEB
S1132BC0DF91CF911F910F9108950F931F93FC01F3
S1132BD000831183228333834483558366837783FD
S1132BE01F910F910895FC01709163036091640338
S1132BF05091650340916603309167032091680307
S1132C009091690380916A03708761875287438733
S1132C10348725879687878708956F927F928F924E
S1132C209F92AF92BF92CF92DF92EF92FF920F9357
S1132C301F93CF93DF93FC01609063037090640350
S1132C408090650390906603D0916703C0916803F8
S1132C50B0916903A0916A0320853185428553852B
S1132C606485758586859785A080B180C280D38070
S1132C70E480F580068117817AD0A22EB32EC42E6B
S1132C80D52EE62EF72E082F192F262D372D482D59
S1132C90592D6D2F7C2F8B2F9A2F7ED050F060866C
S1132CA0718682869386D487C587B687A78781E095
S1132CB001C080E0DF91CF911F910F91FF90EF90C1
S1132CC0DF90CF90BF90AF909F908F907F906F9048
S1132CD0089585E084BD81E080936E0008951F927D
S1132CE00F920FB60F9211242F933F934F935F933C
S1132CF06F937F938F939F93AF932091630330914E
S1132D006403409165035091660360916703709179
S1132D1068038091690390916A03A0E131D0209304
S1132D206303309364034093650350936603609395
S1132D306703709368038093690390936A0315BAD9
S1132D40AF919F918F917F916F915F914F913F913F
S1132D502F910F900FBE0F901F901895EE0FFF1F2D
S1132D600024001C0BBE0790F691E02D09942A0D57
S1132D703B1D4C1D5D1D6E1D7F1D801F911F089501
S1132D800024A7FD00942A0F301D401D501D601D16
S1132D90701D801D901D08952A153B054C055D0589
S1132DA06E057F058007910708950F931F93CF93B6
S1132DB0DF938230910510F482E090E0E0914F0DB2
S1132DC0F091500D20E030E0A0E0B0E0309719F130
S1132DD0408151810281138148175907C8F0841733
S1132DE0950769F4109731F012960C931297139685
S1132DF01C9327C000934F0D1093500D22C0211532
S1132E00310519F04217530718F49A01BD01EF0177
S1132E10DF01F801DBCF21153105F9F0281B390B4F
S1132E202430310580F48A819B816115710521F07C
S1132E30FB019383828304C09093500D80934F0DC4
S1132E40FE01329644C0FE01E20FF31F8193919379
S1132E5022503109398328833AC020914D0D309195
S1132E604E0D232B41F42091020130910301309344
S1132E704E0D20934D0D209100013091010121153B
S1132E80310541F42DB73EB740910401509105013D
S1132E90241B350BE0914D0DF0914E0DE217F30715
S1132EA0A0F42E1B3F0B2817390778F0AC014E5FB6
S1132EB05F4F2417350748F04E0F5F1F50934E0D98
S1132EC040934D0D8193919302C0E0E0F0E0CF0177
S1132ED0DF91CF911F910F910895CF93DF930097C6
S1132EE009F481C0FC01329713821282A0914F0D24
S1132EF0B091500D109781F420813181820F931F7E
S1132F0020914D0D30914E0D2817390751F5F0934E
S1132F104E0DE0934D0D67C0ED0120E030E0CE177B
S1132F20DF0740F44A815B819E0141155105F1F0B0
S1132F30EA01F5CFD383C28340815181840F951F69
S1132F40C817D90759F488819981840F951F02966F
S1132F50918380838A819B819383828321153105A8
S1132F6029F4F093500DE0934F0D3DC0E901FB832C
S1132F70EA8349915991C40FD51FEC17FD0761F4F9
S1132F8080819181840F951F0296E901998388833A
S1132F90828193819B838A83E0E0F0E012968D9195
S1132FA09C911397009719F0FD01DC01F7CF8D91E7
S1132FB09C9111979D012E5F3F4F820F931F20918B
S1132FC04D0D30914E0D2817390769F4309729F4C7
S1132FD01092500D10924F0D02C013821282B093C2
S1132FE04E0DA0934D0DDF91CF910895FB01DC01AF
S1132FF002C001900D9241505040D8F708950F93AC
S11330001F93CF93DF93E091530DF091540D2381DF
S113301021FF1BC08C01D0E0C0E0F80181918F0139
S11330206091530D7091540DDB011896ED91FC9154
S11330301997882331F00995892B79F3DFEFCFEFC6
S1133040ECCF8AE00995892B19F08FEF9FEF02C02E
S11330508D2F9C2FDF91CF911F910F910895F8949C
S1053060FFCF9C
S11330620000570D20000000000200000000C30110
S113307200000000FF007D003000010000007D0020
S11330823900010000007D1039000A0000007D11A2
S11330923900020000007D5033006A0900007D50AF
S11330A235006A0900007D623900F40100007D21C7
S11330B23200204E00007D233200204E00007D218C
S11330C23300701700007D233300701700007D0465
S11330D23000010000007D043000000000007D0388
S11330E23000030000007D80330040420F007D81E8
S11330F2330040420F007D143100000000007D10B7
S11331023100000000007D6A3900000000007D02E9
S11331123000000000007D5033004A0900007D5059
S113312235004A0900007D623900D00700007D2184
S11331323200D00700007D233200D00700007D005A
S11331423000010000007D033000070000007D3ADA
S11331523700E80300007D003300A00F00007D6209
S11331623700000000007E003000010000007E03F2
S11331723000070000007E3A3700E80300007E00BA
S11331823300A00F00007E623700000000007D03C0
S11331923000030000007D80330040420F007D8137
S11331A2330040420F007D003300000000007E0324
S11331B23000030000007E80330040420F007E8115
S11331C2330040420F007E003300000000007E0006
S11331D23000010000007E003900010000007E1072
S11331E239000A0000007E113900020000007E50FE
S11331F233006A0900007E5035006A0900007E62CD
S11332023900F40100007E213200204E00007E23AA
S11332123200204E00007E213300701700007E230E
S11332223300701700007E043000010000007E04A9
S11332323000000000007E033000030000007E80A6
S1133242330040420F007E81330040420F007E145F
S11332523100000000007E103100000000007E6A90
S11332623900000000007E023000000000007E628F
S11332723900D00700007E213200D00700007E23EF
S11332823200D00700003031323334353637005340
S1113292746172747570200D00476F200D007A
S9030000FC
